:0400000033EF00F0EA
:0600080004825BEF00F032
:100018000480E0CF01F0F0A614EF00F016EF00F036
:100028001FEF00F0F0A01BEF00F01DEF00F01FEF36
:1000380000F08C82F090F0A824EF00F026EF00F09A
:100048002FEF00F0F0A22BEF00F02DEF00F02FEFD4
:1000580000F08C84F09201C0E0FF049010007BEF68
:1000680000F06DEC00F075EC00F08AEC00F085EC27
:1000780000F080EC00F089880B0E036E260E026EED
:100088005E0EE82EFED7022EFCD7032EFAD78998EB
:100098000B0E036E260E026E5E0EE82EFED7022EA3
:1000A800FCD7032EFAD73FEF00F033EF00F0F2A8A9
:1000B80060EF00F062EF00F06BEF00F0F2A267EF84
:1000C80000F069EF00F06BEF00F08C80F292049280
:1000D8001100938093829384000E956E000E8C6EAF
:1000E80012000C0EC112D08EF28EF28C1200049007
:1000F8000492000135EF00F0F09EF088F092F1884C
:100108001200F09CF086F090F18A1200F288F292C8
:04011800F18C120054
:020000040020DA
:08000000FFFFFFFFFFFFFFFF00
:020000040030CA
:0E000000FF231F3CFFBC81FF0FC00FE00F402D
:00000001FF
