:04000000A4EF3FF03A
:107F460012000001A7EF3FF0A3EC3FF09494FC0E63
:107F5600BA16BA94BD50F00B0C09BD6E340EBB6E4A
:107F6600BA84000E026E690E016E01C003F002C0F3
:107F760004F0D89004320332D8900432033203500E
:107F8600BE6E01C003F0030E0316033ABD5003187C
:107F9600CF0B0318BD6E040E046E0C0E036E340E6A
:107FA600E82EFED7032EFCD7042EFAD7000E026E5B
:107FB600690E016EBD50F00B0C09BD6E01C003F0D9
:107FC60002C004F0D89004320332D890043203324F
:107FD6000350BE6E030E046E080E036E770EE82E77
:107FE600FED7032EFCD7042EFAD700F0F00EBD16EE
:0A7FF6008B94CEEF3FF000EF00F097
:020000040020DA
:08000000FFFFFFFFFFFFFFFF00
:020000040030CA
:0E000000FF231F3CFFBC81FF0FC00FE00F402D
:00000001FF
